{
  "contractName": "VoterRegistration",
  "abi": [
    {
      "inputs": [],
      "stateMutability": "nonpayable",
      "type": "constructor"
    },
    {
      "inputs": [],
      "name": "admin",
      "outputs": [
        {
          "internalType": "address",
          "name": "",
          "type": "address"
        }
      ],
      "stateMutability": "view",
      "type": "function",
      "constant": true
    },
    {
      "inputs": [
        {
          "internalType": "address",
          "name": "",
          "type": "address"
        }
      ],
      "name": "voters",
      "outputs": [
        {
          "internalType": "bool",
          "name": "",
          "type": "bool"
        }
      ],
      "stateMutability": "view",
      "type": "function",
      "constant": true
    },
    {
      "inputs": [
        {
          "internalType": "address",
          "name": "voter",
          "type": "address"
        }
      ],
      "name": "registerVoter",
      "outputs": [],
      "stateMutability": "nonpayable",
      "type": "function"
    },
    {
      "inputs": [
        {
          "internalType": "address",
          "name": "voter",
          "type": "address"
        }
      ],
      "name": "isRegistered",
      "outputs": [
        {
          "internalType": "bool",
          "name": "",
          "type": "bool"
        }
      ],
      "stateMutability": "view",
      "type": "function",
      "constant": true
    }
  ],
  "bytecode": "0x608060405234801561001057600080fd5b5033600160006101000a81548173ffffffffffffffffffffffffffffffffffffffff021916908373ffffffffffffffffffffffffffffffffffffffff160217905550610510806100616000396000f3fe608060405234801561001057600080fd5b506004361061004c5760003560e01c806338db6dd314610051578063a3ec138d1461006d578063c3c5a5471461009d578063f851a440146100cd575b600080fd5b61006b60048036038101906100669190610311565b6100eb565b005b61008760048036038101906100829190610311565b610261565b6040516100949190610419565b60405180910390f35b6100b760048036038101906100b29190610311565b610281565b6040516100c49190610419565b60405180910390f35b6100d56102d6565b6040516100e291906103fe565b60405180910390f35b600160009054906101000a900473ffffffffffffffffffffffffffffffffffffffff1673ffffffffffffffffffffffffffffffffffffffff163373ffffffffffffffffffffffffffffffffffffffff161461017b576040517f08c379a000000000000000000000000000000000000000000000000000000000815260040161017290610454565b60405180910390fd5b6000808273ffffffffffffffffffffffffffffffffffffffff1673ffffffffffffffffffffffffffffffffffffffff16815260200190815260200160002060009054906101000a900460ff1615610207576040517f08c379a00000000000000000000000000000000000000000000000000000000081526004016101fe90610434565b60405180910390fd5b60016000808373ffffffffffffffffffffffffffffffffffffffff1673ffffffffffffffffffffffffffffffffffffffff16815260200190815260200160002060006101000a81548160ff02191690831515021790555050565b60006020528060005260406000206000915054906101000a900460ff1681565b60008060008373ffffffffffffffffffffffffffffffffffffffff1673ffffffffffffffffffffffffffffffffffffffff16815260200190815260200160002060009054906101000a900460ff169050919050565b600160009054906101000a900473ffffffffffffffffffffffffffffffffffffffff1681565b60008135905061030b816104c3565b92915050565b60006020828403121561032357600080fd5b6000610331848285016102fc565b91505092915050565b61034381610485565b82525050565b61035281610497565b82525050565b6000610365601d83610474565b91507f456c20766f74616e74652079612065737461207265676973747261646f0000006000830152602082019050919050565b60006103a5602e83610474565b91507f536f6c6f20656c2061646d696e6973747261646f72207075656465207265676960008301527f737472617220766f74616e7465730000000000000000000000000000000000006020830152604082019050919050565b6000602082019050610413600083018461033a565b92915050565b600060208201905061042e6000830184610349565b92915050565b6000602082019050818103600083015261044d81610358565b9050919050565b6000602082019050818103600083015261046d81610398565b9050919050565b600082825260208201905092915050565b6000610490826104a3565b9050919050565b60008115159050919050565b600073ffffffffffffffffffffffffffffffffffffffff82169050919050565b6104cc81610485565b81146104d757600080fd5b5056fea26469706673582212205c8033e589638fc17c1a1f872124cdf8e46c30efcca31594307938eeb42974fd64736f6c63430008000033",
  "immutableReferences": {},
  "source": "// SPDX-License-Identifier: UNLICENSED\r\npragma solidity ^0.8.0;\r\n\r\ncontract VoterRegistration {\r\n    // Mapping para almacenar direcciones de votantes registrados\r\n    mapping(address => bool) public voters;\r\n\r\n    // Direccin del administrador del contrato\r\n    address public admin;\r\n\r\n    // Constructor: Se ejecuta una vez al desplegar el contrato\r\n    constructor() {\r\n        admin = msg.sender; // El administrador ser la cuenta que despliega el contrato\r\n    }\r\n\r\n    // Funcin para registrar un votante (solo el administrador puede llamar)\r\n    function registerVoter(address voter) external {\r\n        require(msg.sender == admin, \"Solo el administrador puede registrar votantes\");\r\n        require(!voters[voter], \"El votante ya esta registrado\");\r\n        voters[voter] = true; // Marca al votante como registrado\r\n    }\r\n\r\n    // Funcin para verificar si un votante est registrado\r\n    function isRegistered(address voter) external view returns (bool) {\r\n        return voters[voter];\r\n    }\r\n}\r\n",
  "sourcePath": "C:\\Users\\Guxa\\Desktop\\Votacion\\contracts\\VoterRegistration.sol",
  "compiler": {
    "name": "solc",
    "version": "0.8.0+commit.c7dfd78e.Emscripten.clang"
  },
  "schemaVersion": "3.4.16",
  "updatedAt": "2025-01-09T14:07:39.444Z",
  "networkType": "ethereum",
  "devdoc": {
    "kind": "dev",
    "methods": {},
    "version": 1
  },
  "userdoc": {
    "kind": "user",
    "methods": {},
    "version": 1
  }
}