{
  "contractName": "Voting",
  "abi": [
    {
      "inputs": [
        {
          "internalType": "string[]",
          "name": "candidateNames",
          "type": "string[]"
        }
      ],
      "stateMutability": "nonpayable",
      "type": "constructor"
    },
    {
      "inputs": [],
      "name": "admin",
      "outputs": [
        {
          "internalType": "address",
          "name": "",
          "type": "address"
        }
      ],
      "stateMutability": "view",
      "type": "function",
      "constant": true
    },
    {
      "inputs": [
        {
          "internalType": "uint256",
          "name": "",
          "type": "uint256"
        }
      ],
      "name": "candidates",
      "outputs": [
        {
          "internalType": "string",
          "name": "name",
          "type": "string"
        },
        {
          "internalType": "uint256",
          "name": "voteCount",
          "type": "uint256"
        }
      ],
      "stateMutability": "view",
      "type": "function",
      "constant": true
    },
    {
      "inputs": [
        {
          "internalType": "address",
          "name": "",
          "type": "address"
        }
      ],
      "name": "hasVoted",
      "outputs": [
        {
          "internalType": "bool",
          "name": "",
          "type": "bool"
        }
      ],
      "stateMutability": "view",
      "type": "function",
      "constant": true
    },
    {
      "inputs": [
        {
          "internalType": "uint256",
          "name": "candidateIndex",
          "type": "uint256"
        }
      ],
      "name": "vote",
      "outputs": [],
      "stateMutability": "nonpayable",
      "type": "function"
    },
    {
      "inputs": [
        {
          "internalType": "uint256",
          "name": "candidateIndex",
          "type": "uint256"
        }
      ],
      "name": "getCandidateVotes",
      "outputs": [
        {
          "internalType": "uint256",
          "name": "",
          "type": "uint256"
        }
      ],
      "stateMutability": "view",
      "type": "function",
      "constant": true
    },
    {
      "inputs": [],
      "name": "getCandidates",
      "outputs": [
        {
          "components": [
            {
              "internalType": "string",
              "name": "name",
              "type": "string"
            },
            {
              "internalType": "uint256",
              "name": "voteCount",
              "type": "uint256"
            }
          ],
          "internalType": "struct Voting.Candidate[]",
          "name": "",
          "type": "tuple[]"
        }
      ],
      "stateMutability": "view",
      "type": "function",
      "constant": true
    }
  ],
  "bytecode": "0x60806040523480156200001157600080fd5b506040516200103938038062001039833981810160405281019062000037919062000304565b33600260006101000a81548173ffffffffffffffffffffffffffffffffffffffff021916908373ffffffffffffffffffffffffffffffffffffffff16021790555060005b8151811015620001485760006040518060400160405280848481518110620000cc577f4e487b7100000000000000000000000000000000000000000000000000000000600052603260045260246000fd5b602002602001015181526020016000815250908060018154018082558091505060019003906000526020600020906002020160009091909190915060008201518160000190805190602001906200012592919062000150565b5060208201518160010155505080806200013f9062000455565b9150506200007b565b505062000530565b8280546200015e906200041f565b90600052602060002090601f016020900481019282620001825760008555620001ce565b82601f106200019d57805160ff1916838001178555620001ce565b82800160010185558215620001ce579182015b82811115620001cd578251825591602001919060010190620001b0565b5b509050620001dd9190620001e1565b5090565b5b80821115620001fc576000816000905550600101620001e2565b5090565b60006200021762000211846200037d565b62000349565b9050808382526020820190508260005b858110156200025b5781518501620002408882620002d7565b84526020840193506020830192505060018101905062000227565b5050509392505050565b60006200027c6200027684620003ac565b62000349565b9050828152602081018484840111156200029557600080fd5b620002a2848285620003e9565b509392505050565b600082601f830112620002bc57600080fd5b8151620002ce84826020860162000200565b91505092915050565b600082601f830112620002e957600080fd5b8151620002fb84826020860162000265565b91505092915050565b6000602082840312156200031757600080fd5b600082015167ffffffffffffffff8111156200033257600080fd5b6200034084828501620002aa565b91505092915050565b6000604051905081810181811067ffffffffffffffff8211171562000373576200037262000501565b5b8060405250919050565b600067ffffffffffffffff8211156200039b576200039a62000501565b5b602082029050602081019050919050565b600067ffffffffffffffff821115620003ca57620003c962000501565b5b601f19601f8301169050602081019050919050565b6000819050919050565b60005b8381101562000409578082015181840152602081019050620003ec565b8381111562000419576000848401525b50505050565b600060028204905060018216806200043857607f821691505b602082108114156200044f576200044e620004d2565b5b50919050565b60006200046282620003df565b91507fffffffffffffffffffffffffffffffffffffffffffffffffffffffffffffffff821415620004985762000497620004a3565b5b600182019050919050565b7f4e487b7100000000000000000000000000000000000000000000000000000000600052601160045260246000fd5b7f4e487b7100000000000000000000000000000000000000000000000000000000600052602260045260246000fd5b7f4e487b7100000000000000000000000000000000000000000000000000000000600052604160045260246000fd5b610af980620005406000396000f3fe608060405234801561001057600080fd5b50600436106100625760003560e01c80630121b93f1461006757806306a49fce1461008357806309eef43e146100a15780633477ee2e146100d1578063866163c014610102578063f851a44014610132575b600080fd5b610081600480360381019061007c91906105ca565b610150565b005b61008b6102df565b6040516100989190610802565b60405180910390f35b6100bb60048036038101906100b691906105a1565b6103da565b6040516100c89190610824565b60405180910390f35b6100eb60048036038101906100e691906105ca565b6103fa565b6040516100f992919061083f565b60405180910390f35b61011c600480360381019061011791906105ca565b6104b6565b60405161012991906108af565b60405180910390f35b61013a610551565b60405161014791906107e7565b60405180910390f35b600160003373ffffffffffffffffffffffffffffffffffffffff1673ffffffffffffffffffffffffffffffffffffffff16815260200190815260200160002060009054906101000a900460ff16156101dd576040517f08c379a00000000000000000000000000000000000000000000000000000000081526004016101d49061086f565b60405180910390fd5b6000805490508110610224576040517f08c379a000000000000000000000000000000000000000000000000000000000815260040161021b9061088f565b60405180910390fd5b60018060003373ffffffffffffffffffffffffffffffffffffffff1673ffffffffffffffffffffffffffffffffffffffff16815260200190815260200160002060006101000a81548160ff021916908315150217905550600081815481106102b5577f4e487b7100000000000000000000000000000000000000000000000000000000600052603260045260246000fd5b906000526020600020906002020160010160008154809291906102d7906109dd565b919050555050565b60606000805480602002602001604051908101604052809291908181526020016000905b828210156103d15783829060005260206000209060020201604051806040016040529081600082018054610336906109ab565b80601f0160208091040260200160405190810160405280929190818152602001828054610362906109ab565b80156103af5780601f10610384576101008083540402835291602001916103af565b820191906000526020600020905b81548152906001019060200180831161039257829003601f168201915b5050505050815260200160018201548152505081526020019060010190610303565b50505050905090565b60016020528060005260406000206000915054906101000a900460ff1681565b6000818154811061040a57600080fd5b906000526020600020906002020160009150905080600001805461042d906109ab565b80601f0160208091040260200160405190810160405280929190818152602001828054610459906109ab565b80156104a65780601f1061047b576101008083540402835291602001916104a6565b820191906000526020600020905b81548152906001019060200180831161048957829003601f168201915b5050505050908060010154905082565b6000808054905082106104fe576040517f08c379a00000000000000000000000000000000000000000000000000000000081526004016104f59061088f565b60405180910390fd5b60008281548110610538577f4e487b7100000000000000000000000000000000000000000000000000000000600052603260045260246000fd5b9060005260206000209060020201600101549050919050565b600260009054906101000a900473ffffffffffffffffffffffffffffffffffffffff1681565b60008135905061058681610a95565b92915050565b60008135905061059b81610aac565b92915050565b6000602082840312156105b357600080fd5b60006105c184828501610577565b91505092915050565b6000602082840312156105dc57600080fd5b60006105ea8482850161058c565b91505092915050565b60006105ff838361078c565b905092915050565b61061081610930565b82525050565b6000610621826108da565b61062b81856108fd565b93508360208202850161063d856108ca565b8060005b85811015610679578484038952815161065a85826105f3565b9450610665836108f0565b925060208a01995050600181019050610641565b50829750879550505050505092915050565b61069481610942565b82525050565b60006106a5826108e5565b6106af818561090e565b93506106bf818560208601610978565b6106c881610a84565b840191505092915050565b60006106de826108e5565b6106e8818561091f565b93506106f8818560208601610978565b61070181610a84565b840191505092915050565b6000610719600d8361091f565b91507f59612068617320766f7461646f000000000000000000000000000000000000006000830152602082019050919050565b6000610759601c8361091f565b91507f496e646963652064652063616e64696461746f20696e76616c69646f000000006000830152602082019050919050565b600060408301600083015184820360008601526107a9828261069a565b91505060208301516107be60208601826107c9565b508091505092915050565b6107d28161096e565b82525050565b6107e18161096e565b82525050565b60006020820190506107fc6000830184610607565b92915050565b6000602082019050818103600083015261081c8184610616565b905092915050565b6000602082019050610839600083018461068b565b92915050565b6000604082019050818103600083015261085981856106d3565b905061086860208301846107d8565b9392505050565b600060208201905081810360008301526108888161070c565b9050919050565b600060208201905081810360008301526108a88161074c565b9050919050565b60006020820190506108c460008301846107d8565b92915050565b6000819050602082019050919050565b600081519050919050565b600081519050919050565b6000602082019050919050565b600082825260208201905092915050565b600082825260208201905092915050565b600082825260208201905092915050565b600061093b8261094e565b9050919050565b60008115159050919050565b600073ffffffffffffffffffffffffffffffffffffffff82169050919050565b6000819050919050565b60005b8381101561099657808201518184015260208101905061097b565b838111156109a5576000848401525b50505050565b600060028204905060018216806109c357607f821691505b602082108114156109d7576109d6610a55565b5b50919050565b60006109e88261096e565b91507fffffffffffffffffffffffffffffffffffffffffffffffffffffffffffffffff821415610a1b57610a1a610a26565b5b600182019050919050565b7f4e487b7100000000000000000000000000000000000000000000000000000000600052601160045260246000fd5b7f4e487b7100000000000000000000000000000000000000000000000000000000600052602260045260246000fd5b6000601f19601f8301169050919050565b610a9e81610930565b8114610aa957600080fd5b50565b610ab58161096e565b8114610ac057600080fd5b5056fea2646970667358221220ee39f13ea70e25b4395a417c68ef4483ade366b062e029c42ed59a30a9a7f27564736f6c63430008000033",
  "immutableReferences": {},
  "source": "// SPDX-License-Identifier: UNLICENSED\r\npragma solidity ^0.8.0;\r\n\r\ncontract Voting {\r\n    // Estructura de datos para un candidato\r\n    struct Candidate {\r\n        string name;\r\n        uint voteCount;\r\n    }\r\n\r\n    // Lista de candidatos\r\n    Candidate[] public candidates;\r\n\r\n    // Mapping para evitar que un votante emita ms de un voto\r\n    mapping(address => bool) public hasVoted;\r\n\r\n    // Direccin del administrador del contrato\r\n    address public admin;\r\n\r\n    // Constructor: Se ejecuta al desplegar el contrato\r\n    constructor(string[] memory candidateNames) {\r\n        admin = msg.sender; // Define al administrador\r\n        for (uint i = 0; i < candidateNames.length; i++) {\r\n            candidates.push(Candidate(candidateNames[i], 0));\r\n        }\r\n    }\r\n\r\n    // Funcin para emitir un voto\r\n    function vote(uint candidateIndex) external {\r\n        require(!hasVoted[msg.sender], \"Ya has votado\");\r\n        require(candidateIndex < candidates.length, \"Indice de candidato invalido\");\r\n\r\n        hasVoted[msg.sender] = true; // Marca al votante como que ya vot\r\n        candidates[candidateIndex].voteCount++; // Incrementa el conteo del candidato\r\n    }\r\n\r\n    // Funcin para obtener el total de votos de un candidato\r\n    function getCandidateVotes(uint candidateIndex) external view returns (uint) {\r\n        require(candidateIndex < candidates.length, \"Indice de candidato invalido\");\r\n        return candidates[candidateIndex].voteCount;\r\n    }\r\n\r\n    // Funcin para obtener la lista de candidatos\r\n    function getCandidates() external view returns (Candidate[] memory) {\r\n        return candidates;\r\n    }\r\n}\r\n",
  "sourcePath": "C:\\Users\\Guxa\\Desktop\\Votacion\\contracts\\Voting.sol",
  "compiler": {
    "name": "solc",
    "version": "0.8.0+commit.c7dfd78e.Emscripten.clang"
  },
  "schemaVersion": "3.4.16",
  "updatedAt": "2025-01-08T22:37:50.698Z",
  "networkType": "ethereum",
  "devdoc": {
    "kind": "dev",
    "methods": {},
    "version": 1
  },
  "userdoc": {
    "kind": "user",
    "methods": {},
    "version": 1
  }
}